:100000000C94691E0C94861E0C94861E0C94861EFD
:100010000C94861E0C94861E0C94861E0C94861ED0
:100020000C94861E0C94861E0C94861E0C94861EC0
:100030000C94861E0C94861E0C94861E0C94861EB0
:100040000C9457220C94861E0C94861E0C94861ECB
:100050000C94861E0C94861E0C94861E0C94861E90
:100060000C94861E0C94861E00060C12181E232962
:100070002E34393E43484C5054585C5F6265686A80
:100080006C6E6F7071727373737373727271706F61
:100090006E6C6B696866656361605E5D5B5A58573C
:1000A000565554535352525251525252535354551F
:1000B0005657585A5B5D5E606163656668696B6C34
:1000C0006E6F7071727273737373737271706F6E1F
:1000D0006C6A6865625F5C5854504C48433E3934E2
:1000E0002E29231E18120C0600FAF4EEE8E2DDD7E2
:1000F000D2CCC7C2BDB8B4B0ACA8A4A19E9B989600
:10010000949291908F8E8D8D8D8D8D8E8E8F9091FE
:1001100092949597989A9B9D9FA0A2A3A5A6A8A903
:10012000AAABACADADAEAEAEAFAEAEAEADADACAB00
:10013000AAA9A8A6A5A3A2A09F9D9B9A98979594CB
:100140009291908F8E8E8D8D8D8D8D8E8F909192C0
:100150009496989B9EA1A4A8ACB0B4B8BDC2C7CCDD
:10016000D2D7DDE2E8EEF4FA000009121B232C34AA
:100170003B434A50565B6064686B6D6F717272727C
:1001800071716F6E6C6A68666462605E5C5A595722
:1001900056565555555555565758595B5C5E5F61D7
:1001A00062646566676869696A6A6A6969686766D8
:1001B000656462615F5E5C5B59585756555555558D
:1001C00055565657595A5C5E60626466686A6C6E32
:1001D0006F7171727272716F6D6B6864605B565093
:1001E0004A433B342C231B120900F7EEE5DDD4CC47
:1001F000C5BDB6B0AAA5A09C989593918F8E8E8E02
:100200008F8F91929496989A9C9EA0A2A4A6A7A93B
:10021000AAAAABABABABABAAA9A8A7A5A4A2A19F66
:100220009E9C9B9A99989797969696979798999A45
:100230009B9C9E9FA1A2A4A5A7A8A9AAABABABAB70
:10024000ABAAAAA9A7A6A4A2A09E9C9A98969492AB
:10025000918F8F8E8E8E8F919395989CA0A5AAB02A
:10026000B6BDC5CCD4DDE5EEF700000C18232E3961
:10027000434C545B61676B6E70717271706F6D6A25
:100280006865625F5D5B5958565656565657595ABF
:100290005C5D5F6163646667676868686767666519
:1002A0006362605F5D5C5B5A59595859595A5B5C8F
:1002B0005D5F6062636566676768686867676664F4
:1002C00063615F5D5C5A5957565656565658595B8E
:1002D0005D5F6265686A6D6F70717271706E6B6779
:1002E000615B544C43392E23180C00F4E8DDD2C76F
:1002F000BDB4ACA59F999592908F8E8F9091939657
:10030000989B9EA1A3A5A7A8AAAAAAAAAAA9A7A69C
:10031000A4A3A19F9D9C9A999998989899999A9B22
:100320009D9EA0A1A3A4A5A6A7A7A8A7A7A6A5A48C
:10033000A3A1A09E9D9B9A999998989899999A9C07
:100340009D9FA1A3A4A6A7A9AAAAAAAAAAA8A7A54D
:10035000A3A19E9B98969391908F8E8F9092959942
:100360009FA5ACB4BDC7D2DDE8F400000F1E2C3948
:1003700045505961686C6F7171716F6C696663602B
:100380005D5A585756565758595B5D5F61636566AD
:100390006767676766656362605E5D5C5B5A5A5A51
:1003A0005A5B5C5E5F616263646566666665646332
:1003B00062615F5E5C5B5A5A5A5A5B5C5D5E60626A
:1003C00063656667676767666563615F5D5B59580C
:1003D00057565657585A5D606366696C6F717171F4
:1003E0006F6C6861595045392C1E0F00F1E2D4C77B
:1003F000BBB0A79F9894918F8F8F9194979A9DA04F
:10040000A3A6A8A9AAAAA9A8A7A5A3A19F9D9B9AAC
:10041000999999999A9B9D9EA0A2A3A4A5A6A6A6E8
:10042000A6A5A4A2A19F9E9D9C9B9A9A9A9B9C9DE7
:100430009E9FA1A2A4A5A6A6A6A6A5A4A3A2A09E8F
:100440009D9B9A999999999A9B9D9FA1A3A5A7A8CD
:10045000A9AAAAA9A8A6A3A09D9A9794918F8F8FC5
:100460009194989FA7B0BBC7D4E2F1000012233447
:1004700043505B646A6F7171706D6A66625E5B594E
:1004800057565657595B5E60626466676767666574
:1004900063615F5D5C5B5A5A5B5B5D5E6061636478
:1004A00065656565646261605E5D5C5B5B5B5C5D50
:1004B0005E6061626465656565646361605E5D5B25
:1004C0005B5A5A5B5C5D5F6163656667676766641C
:1004D00062605E5B5957565657595B5E62666A6D3D
:1004E0007071716F6A645B504334231200EEDDCC8F
:1004F000BDB0A59C96918F8F9093969A9EA2A5A72A
:10050000A9AAAAA9A7A5A2A09E9C9A9999999A9BE3
:100510009D9FA1A3A4A5A6A6A5A5A3A2A09F9D9CBF
:100520009B9B9B9B9C9E9FA0A2A3A4A5A5A5A4A3C7
:10053000A2A09F9E9C9B9B9B9B9C9D9FA0A2A3A5D2
:10054000A5A6A6A5A4A3A19F9D9B9A9999999A9CBB
:100550009EA0A2A5A7A9AAAAA9A7A5A29E9A96937A
:10056000908F8F91969CA5B0BDCCDDEE0000152933
:100570003B4C59646B7071716E6A66615D5A575677
:1005800057585A5D606264666767666463605E5D63
:100590005B5B5B5B5C5E6061636465656463626159
:1005A0005F5E5C5C5C5C5D5E5F616263646464634F
:1005B00062615F5E5D5C5C5C5C5E5F616263646542
:1005C00065646361605E5C5B5B5B5B5D5E60636436
:1005D000666767666462605D5A585756575A5D6130
:1005E000666A6E7171706B64594C3B291500EBD7CC
:1005F000C5B4A79C95908F8F92969A9FA3A6A9AAFF
:10060000A9A8A6A3A09E9C9A99999A9C9DA0A2A3F2
:10061000A5A5A5A5A4A2A09F9D9C9B9B9C9D9E9FDC
:10062000A1A2A4A4A4A4A3A2A19F9E9D9C9C9C9DC6
:100630009E9FA1A2A3A4A4A4A4A2A19F9E9D9C9BB3
:100640009B9C9D9FA0A2A4A5A5A5A5A3A2A09D9C9F
:100650009A99999A9C9EA0A3A6A8A9AAA9A6A39F85
:100660009A96928F8F90959CA7B4C5D7EB000018EF
:100670002E4354616A7071706C68625D5A575657A8
:10068000595C5F62656667666563605E5C5B5B5B69
:100690005C5E6062636465646362605E5D5C5C5C5A
:1006A0005D5E6061636464646361605F5D5C5C5C4B
:1006B0005D5F6061636464646361605E5D5C5C5C3B
:1006C0005D5E6062636465646362605E5C5B5B5B2D
:1006D0005C5E60636566676665625F5C5957565726
:1006E0005A5D62686C7071706A6154432E1800E83C
:1006F000D2BDAC9F96908F9094989EA3A6A9AAA9CC
:10070000A7A4A19E9B9A999A9B9DA0A2A4A5A5A5EA
:10071000A4A2A09E9D9C9B9C9D9EA0A2A3A4A4A4D9
:10072000A3A2A09F9D9C9C9C9D9FA0A1A3A4A4A4C8
:10073000A3A1A09F9D9C9C9C9D9FA0A2A3A4A4A4B8
:10074000A3A2A09E9D9C9B9C9D9EA0A2A4A5A5A5A6
:10075000A4A2A09D9B9A999A9B9EA1A4A7A9AAA98D
:10076000A6A39E9894908F90969FACBDD2E800006F
:100770001B344A5B676F71706C66605B58575759E2
:100780005C60636567666563605E5C5B5B5C5E6066
:10079000626364646462605F5D5C5C5D5E60616353
:1007A00063646362615F5E5D5D5D5E5F6162636342
:1007B0006362615F5E5D5D5D5E5F61626364636332
:1007C00061605E5D5C5C5D5F606264646463626026
:1007D0005E5C5B5B5C5E60636566676563605C591D
:1007E0005757585B60666C70716F675B4A341B00CB
:1007F000E5CCB6A599918F90949AA0A5A8A9A9A790
:10080000A4A09D9B999A9B9DA0A2A4A5A5A4A2A0EB
:100810009E9D9C9C9C9EA0A1A3A4A4A3A2A09F9DDE
:100820009D9C9D9E9FA1A2A3A3A3A2A19F9E9D9DCF
:100830009D9E9FA1A2A3A3A3A2A19F9E9D9C9D9DBF
:100840009FA0A2A3A4A4A3A1A09E9C9C9C9D9EA0AB
:10085000A2A4A5A5A4A2A09D9B9A999B9DA0A4A794
:10086000A9A9A8A5A09A94908F9199A5B6CCE500C6
:1008700000203E56666F716E67605B5757595D6129
:1008800064666664625F5C5B5B5D5F626364646256
:10089000605E5D5C5D5E6062636363615F5E5D5D63
:1008A0005E5F6162636362605F5E5D5D5E60616248
:1008B000636261605E5D5D5E5F6062636362615F33
:1008C0005E5D5D5E5F6163636362605E5D5C5D5E35
:1008D0006062646463625F5D5B5B5C5F626466660A
:1008E00064615D5957575B60676E716F66563E2055
:1008F00000E0C2AA9A918F9299A0A5A9A9A7A39F47
:100900009C9A9A9C9EA1A4A5A5A3A19E9D9C9C9EF9
:10091000A0A2A3A4A3A2A09E9D9D9D9FA1A2A3A3CC
:10092000A2A19F9E9D9D9EA0A1A2A3A3A2A09F9EC7
:100930009D9E9FA0A2A3A3A2A1A09E9D9D9E9FA1BC
:10094000A2A3A3A2A19F9D9D9D9EA0A2A3A4A3A29A
:10095000A09E9C9C9D9EA1A3A5A5A4A19E9C9A9AA5
:100960009C9FA3A7A9A9A5A099928F919AAAC2E03A
:1009700000002647606D716D665D5857595E62666E
:100980006665615E5B5B5D5F62646463605E5D5D66
:100990005E6062636362605E5D5D5F606263626150
:1009A000605E5E5E5F60626262615F5E5E5E5F614E
:1009B000626262615F5E5E5E5F61626262605F5E34
:1009C0005E5E6061626362605F5D5D5E6062636324
:1009D00062605E5D5D5E60636464625F5D5B5B5E22
:1009E00061656666625E5957585D666D716D6047F8
:1009F0002600DAB9A0938F939AA3A8A9A7A29E9ADA
:100A00009A9B9FA2A5A5A3A19E9C9C9DA0A2A3A3E7
:100A1000A2A09E9D9D9EA0A2A3A3A1A09E9D9E9FDD
:100A2000A0A2A2A2A1A09E9E9E9FA1A2A2A2A19FBF
:100A30009E9E9E9FA1A2A2A2A19F9E9E9EA0A1A2B9
:100A4000A2A2A09F9E9D9EA0A1A3A3A2A09E9D9DA9
:100A50009EA0A2A3A3A2A09D9C9C9EA1A3A5A5A28B
:100A60009F9B9A9A9EA2A7A9A8A39A938F93A0B995
:100A7000DA00002E546A716C625A57595F646665D9
:100A8000605D5B5C60636463605E5D5E6062636268
:100A9000605E5D5E60626262605E5E5E6062626257
:100AA000605F5E5F60616261605F5E5F6061626146
:100AB000605F5E5F60616261605F5E5F6061626136
:100AC000605F5E5F60626262605E5E5E6062626224
:100AD000605E5D5E60626362605E5D5E6063646313
:100AE000605C5B5D606566645F59575A626C716AF1
:100AF000542E00D2AC968F949EA6A9A7A19C9A9B37
:100B0000A0A3A5A4A09D9C9DA0A2A3A2A09E9D9EE3
:100B1000A0A2A3A2A09E9E9EA0A2A2A2A09E9E9ED4
:100B2000A0A1A2A1A09F9E9FA0A1A2A1A09F9E9FC5
:100B3000A0A1A2A1A09F9E9FA0A1A2A1A09F9E9FB5
:100B4000A0A1A2A1A09E9E9EA0A2A2A2A09E9E9EA7
:100B5000A0A2A3A2A09E9D9EA0A2A3A2A09D9C9D98
:100B6000A0A4A5A3A09B9A9CA1A7A9A69E948F969A
:100B7000ACD20000345B6F70665B5759606566638A
:100B80005E5B5C606364625F5D5D606263625F5E6A
:100B90005E5F626262605E5E5F616261605E5E5F58
:100BA000616261605F5E5F616261605F5E5F606243
:100BB00062605F5E5F606262605F5E5F6061626133
:100BC0005F5E5F606162615F5E5E606162615F5E29
:100BD0005E606262625F5E5E5F626362605D5D5F17
:100BE000626463605C5B5E6366656059575B6670F8
:100BF0006F5B3400CCA591909AA5A9A7A09B9A9D64
:100C0000A2A5A4A09D9C9EA1A3A3A09E9D9EA1A2DF
:100C1000A2A19E9E9EA0A2A2A19F9E9FA0A2A2A1D1
:100C20009F9E9FA0A1A2A19F9E9FA0A1A2A1A09EC6
:100C30009EA0A1A2A1A09E9EA0A1A2A1A09F9E9FB6
:100C4000A1A2A1A09F9E9FA1A2A2A09F9E9FA1A2A0
:100C5000A2A09E9E9EA1A2A2A19E9D9EA0A3A3A192
:100C60009E9C9DA0A4A5A29D9A9BA0A7A9A59A9091
:100C700091A5CC00003E6671675B575D6466625C5F
:100C80005B5F6363605D5D606362605E5E61626165
:100C90005F5E5F6162615F5E5F6162615F5E606156
:100CA00061605F5F606161605F5F606161605F5F45
:100CB0006161615F5F5F6161615F5F606161605F32
:100CC0005F606161605F5F606161605E5F61626122
:100CD0005F5E5F6162615F5E5F6162615E5E606216
:100CE00063605D5D6063635F5B5C6266645D575B10
:100CF0006771663E00C29A8F99A5A9A39C9A9EA48B
:100D0000A5A19D9DA0A3A3A09D9EA0A2A29F9E9FE2
:100D1000A1A2A19F9E9FA1A2A19F9E9FA1A2A09FD1
:100D20009FA0A1A1A09F9FA0A1A1A09F9FA0A1A1C2
:100D30009F9F9FA1A1A19F9F9FA1A1A09F9FA0A1B5
:100D4000A1A09F9FA0A1A1A09F9FA0A2A19F9E9FA5
:100D5000A1A2A19F9E9FA1A2A19F9E9FA2A2A09E91
:100D60009DA0A3A3A09D9DA1A5A49E9A9CA3A9A577
:100D7000998F9AC20000456C6F60575B6466605B38
:100D80005D6264615D5E6163615E5E6162615E5E63
:100D90006062615F5E6062615F5E6061615F5F6053
:100DA0006161605F5F6161605F5F6161605F5F6142
:100DB00061605F5F6061605F5F6061615F5F606134
:100DC000615F5F6061615F5F606161605F5F616122
:100DD000605E5F6162605E5F6162605E5E61626113
:100DE0005E5E6163615E5D6164625D5B6066645B03
:100DF00057606F6C4500BB9491A0A9A59C9AA0A5D3
:100E0000A39E9C9FA3A29F9D9FA2A29F9E9FA2A2E2
:100E1000A09E9FA1A2A09E9FA1A2A09F9FA1A1A0D2
:100E20009F9FA0A1A19F9FA0A1A19F9FA0A1A19FC3
:100E30009FA0A1A1A09FA0A1A1A09F9FA1A1A09FB1
:100E40009FA1A1A09F9FA1A1A09F9FA0A1A19F9FA3
:100E5000A0A2A19F9EA0A2A19F9EA0A2A29F9E9F92
:100E6000A2A29F9D9FA2A39F9C9EA3A5A09A9CA582
:100E7000A9A09194BB0000507166575B65645D5CEE
:100E800062635F5D6063605E5F62615E5F61615F60
:100E90005F6161605F6061605F6061615F5F616150
:100EA0005F5F6061605F6061605F6061615F5F6143
:100EB00061605F6061605F6061605F6061615F5F32
:100EC0006161605F6061605F6061605F5F61615F21
:100ED0005F6161605F6061605F6061615F5F616110
:100EE0005F5E61625F5E6063605D5F63625C5D6404
:100EF000655B5766715000B08F9AA9A59B9CA3A40F
:100F00009E9DA1A3A09DA0A2A19E9FA2A19F9FA1E3
:100F1000A19F9FA0A1A09FA0A1A09F9FA1A19F9FD3
:100F2000A1A1A09FA0A1A09FA0A1A09F9FA1A19FC0
:100F30009FA0A1A09FA0A1A09FA0A1A09F9FA1A1B1
:100F40009F9FA0A1A09FA0A1A09FA0A1A19F9FA1A2
:100F5000A19F9FA0A1A09FA0A1A09F9FA1A19F9F93
:100F6000A1A29F9EA1A2A09DA0A3A19D9EA4A39C7F
:100F70009BA5A99A8FB0000059705D5864645C5EAF
:100F800064615D60635F5E62615E5F62605E60615E
:100F90005F5F61615F6061605F60615F5F61615F52
:100FA0006061605F60615F5F61605F6061605F6042
:100FB000615F5F61605F6061605F60615F5F616032
:100FC0005F6061605F60615F5F61605F6061605F23
:100FD00061615F5F61605F6061605F61615F5F6110
:100FE000605E60625F5E61625E5F63605D61645E01
:100FF0005C6464585D705900A790A3A89C9CA4A24F
:101000009C9FA3A09DA1A29E9FA2A19EA0A2A09FE3
:10101000A1A19F9FA1A09FA0A1A09FA1A19F9FA1CF
:10102000A09FA0A1A09FA1A19FA0A1A09FA0A1A0BF
:101030009FA1A19FA0A1A09FA0A1A09FA1A19FA0AF
:10104000A1A09FA0A1A09FA1A19FA0A1A09FA0A19E
:101050009F9FA1A19FA0A1A09FA0A19F9FA1A19F91
:10106000A0A2A09EA1A29F9EA2A19DA0A39F9CA280
:10107000A49C9CA8A390A70000626B5761655C5F6D
:10108000645E5F635F5F625F5F62605F61605F615C
:10109000615F61615F60615F60615F60615F60614E
:1010A000605F61605F61605F61605F60605F606141
:1010B0005F60615F6061606061606061605F61602E
:1010C0005F61605F60605F60615F60615F60615F22
:1010D0006061605F61605F61605F61605F61615F0F
:1010E00061615F60615F60625F5F625F5F635F5EFF
:1010F000645F5C6561576B62009E95A99F9BA4A18C
:101100009CA2A19DA1A19EA1A19EA0A19FA0A19FE3
:101110009FA19F9FA1A09FA1A09FA1A09FA1A09FD1
:10112000A0A19FA0A19FA0A19FA0A1A0A0A1A09FBE
:10113000A1A09FA1A09FA0A09FA0A09FA0A19FA0B1
:10114000A19FA0A1A0A0A1A09FA1A09FA1A09FA19D
:10115000A09FA0A19FA0A19FA0A19FA0A19F9FA190
:101160009F9FA1A09FA1A09EA1A19EA1A19DA1A280
:101170009CA1A49B9FA9959E00006A6259665D6030
:10118000635D62605E625F60615E61605F615F605F
:10119000615F61605F615F60615F61605F615F604F
:1011A000615F61605F615F60605F6060606160603F
:1011B000605F606060616060605F6060606160602F
:1011C000605F606060616060605F60605F615F6021
:1011D000615F61605F615F60615F61605F615F600F
:1011E000615F61605F615F60615E61605F625E6000
:1011F000625D63605D6659626A00969EA79AA3A0CD
:101200009DA39EA0A29EA1A09FA29FA0A19FA1A0DE
:101210009FA19FA0A19FA1A09FA19FA0A19FA1A0CE
:101220009FA19FA0A19FA1A0A0A1A0A0A09FA0A0BE
:10123000A0A1A0A0A09FA0A0A0A1A0A0A09FA0A0AE
:10124000A0A1A0A0A09FA0A0A0A1A0A0A19FA1A09C
:101250009FA19FA0A19FA1A09FA19FA0A19FA1A08E
:101260009FA19FA0A19FA1A09FA29FA0A19EA2A07D
:101270009EA39DA0A39AA79E9600006F5B61625DEE
:10128000635D635E61605F625E615F60605F615F5E
:10129000615F606060615F615F606060615F615F4E
:1012A000606060605F615F606060605F615F606040
:1012B00060605F6160606060605F615F606060602F
:1012C00060615F606060605F615F606060605F611F
:1012D0005F606060605F615F616060605F615F610F
:1012E0006060605F615F615F60605F615E625F6000
:1012F000615E635D635D62615B6F0091A59F9EA30C
:101300009DA39DA29FA0A19EA29FA1A0A0A19FA1DD
:101310009FA1A0A0A09FA19FA1A0A0A09FA19FA1CD
:10132000A0A0A0A0A19FA1A0A0A0A0A19FA1A0A0BB
:10133000A0A0A19FA0A0A0A0A0A19FA1A0A0A0A0AC
:10134000A09FA1A0A0A0A0A19FA1A0A0A0A0A19F9C
:10135000A1A0A0A0A0A19FA19FA0A0A0A19FA19F8C
:10136000A0A0A0A19FA19FA1A0A0A19FA29EA1A07B
:101370009FA29DA39DA39E9FA59100007157665BB0
:10138000645D635E625E625E625F615F615F615F5A
:10139000615F615F615F615F615F615F615F615F4D
:1013A000615F615F615F615F615F615F615F61603C
:1013B000606060606060606060606060606060602D
:1013C0006060606060606060615F615F615F615F1D
:1013D000615F615F615F615F615F615F615F615F0D
:1013E000615F615F615F615F615F615F615F625EFD
:1013F000625E625E635D645B665771008FA99AA549
:101400009CA39DA29EA29EA29EA19FA19FA19FA1DF
:101410009FA19FA19FA19FA19FA19FA19FA19FA1CC
:101420009FA19FA19FA19FA19FA19FA19FA19FA0BD
:10143000A0A0A0A0A0A0A0A0A0A0A0A0A0A0A0A0AC
:10144000A0A0A0A0A0A0A0A09FA19FA19FA19FA19C
:101450009FA19FA19FA19FA19FA19FA19FA19FA18C
:101460009FA19FA19FA19FA19FA19FA19FA19EA27C
:101470009EA29EA29DA39CA59AA98F000004090D7F
:1014800012161B1F23272B2F3236393D4043464867
:101490004A4D4F5152545556575758585858585707
:1014A000575655545352504F4D4C4A48464442416A
:1014B0003F3D3B39373533312F2E2C2A292726251E
:1014C000232221201F1F1E1D1D1C1C1B1B1B1B1B41
:1014D0001A1A1A1B1B1B1B1B1B1B1B1B1B1B1B1B5F
:1014E0001B1B1A1A1A191918181716151514131286
:1014F000110F0E0D0C0A09070604030100FFFDFC85
:10150000FAF9F7F6F4F3F2F1EFEEEDECEBEBEAE9D2
:10151000E8E8E7E7E6E6E6E5E5E5E5E5E5E5E5E56E
:10152000E5E5E5E5E5E5E6E6E6E5E5E5E5E5E4E46A
:10153000E3E3E2E1E1E0DFDEDDDBDAD9D7D6D4D2E6
:10154000D1CFCDCBC9C7C5C3C1BFBEBCBAB8B6B475
:10155000B3B1B0AEADACABAAA9A9A8A8A8A8A8A9D8
:10156000A9AAABACAEAFB1B3B6B8BABDC0C3C7CA17
:10157000CED1D5D9DDE1E5EAEEF3F7FC0000070FA7
:10158000161D242B32383E43484D5155585A5D5E46
:1015900060606161605F5E5D5B59575552504D4AB6
:1015A000484543403E3C3A3937363534333232329F
:1015B00032323232323333333434353535353535F2
:1015C000343433333231302F2D2C2A29272624224C
:1015D000211F1E1C1B191817161514141312121292
:1015E00012111111111111111111111111111010EC
:1015F0000F0F0E0D0C0B0A09070604030100FFFD77
:10160000FCFAF9F7F6F5F4F3F2F1F1F0F0EFEFEFA1
:10161000EFEFEFEFEFEFEFEFEFEFEEEEEEEEEDECE3
:10162000ECEBEAE9E8E7E5E4E2E1DFDEDCDAD9D792
:10163000D6D4D3D1D0CFCECDCDCCCCCBCBCBCBCBC6
:10164000CBCCCCCDCDCDCECECECECECECECECDCCC7
:10165000CBCAC9C7C6C4C2C0BDBBB8B6B3B0AEABB7
:10166000A9A7A5A3A2A1A09F9FA0A0A2A3A6A8AB43
:10167000AFB3B8BDC2C8CED5DCE3EAF1F900000AC9
:10168000151F29323B434A50565B5E6163656565B1
:101690006462605D5A5754514E4B484543413F3E4A
:1016A0003D3C3C3C3C3D3D3E3F3F40414141424151
:1016B0004141403F3D3C3A39373533312F2E2C2BB9
:1016C0002A282827262626262626262626262726B0
:1016D0002626262524232221201E1D1B1A18161516
:1016E000141211100F0F0E0D0D0D0D0D0D0D0D0D12
:1016F0000D0D0C0C0B0B0A0908070604030100FF73
:10170000FDFCFAF9F8F7F6F5F5F4F4F3F3F3F3F377
:10171000F3F3F3F3F3F3F2F1F1F0EFEEECEBEAE8CD
:10172000E6E5E3E2E0DFDEDDDCDBDADADADAD9DADD
:10173000DADADADADADADADADAD9D8D8D6D5D4D225
:10174000D1CFCDCBC9C7C6C4C3C1C0BFBFBFBEBF49
:10175000BFBFC0C1C1C2C3C3C4C4C4C4C3C2C1BF6C
:10176000BDBBB8B5B2AFACA9A6A3A09E9C9B9B9BEA
:101770009D9FA2A5AAB0B6BDC5CED7E1EBF60000ED
:101780000D1B27333E4851585E6265676767656287
:101790005F5C5854504D4A4745434242424243449D
:1017A00045464748494949494847454442403D3BE9
:1017B00039373634333232313131323232333333F6
:1017C00033333231302F2E2C2A2927252423212070
:1017D0001F1F1E1E1E1E1E1E1E1E1E1E1E1D1C1B2D
:1017E0001A191716141311100F0D0C0C0B0B0A0AF3
:1017F0000A0A0A0A0A0A0A09080807060403010075
:10180000FFFDFCFAF9F8F8F7F6F6F6F6F6F6F6F656
:10181000F6F5F5F4F4F3F1F0EFEDECEAE9E7E6E5DF
:10182000E4E3E2E2E2E2E2E2E2E2E2E2E2E1E1E099
:10183000DFDDDCDBD9D7D6D4D2D1D0CFCECDCDCD64
:10184000CDCDCECECECFCFCFCECECDCCCAC9C7C5D3
:10185000C3C0BEBCBBB9B8B7B7B7B7B8B9BABBBCE1
:10186000BDBEBEBEBEBDBBB9B6B3B0ACA8A4A19E42
:101870009B9999999B9EA2A8AFB8C2CDD9E5F300D8
:101880000010202F3D4A545C626769696865625D9B
:101890005954504D4A474646464648494A4C4D4E93
:1018A0004E4E4D4C4A484643413F3D3B3A3939390B
:1018B000393A3A3B3B3B3B3B3A3938363433312FAC
:1018C0002D2C2B2A2A2929292A2A2A2A2A29292879
:1018D00027252422211F1E1C1B1A1A191919191930
:1018E00019191918181716151312100F0D0C0B0AC9
:1018F000090909080808080808080706050403017B
:1019000000FFFDFCFBFAF9F8F8F8F8F8F8F8F7F73B
:10191000F7F6F5F4F3F1F0EEEDEBEAE9E8E8E7E7E6
:10192000E7E7E7E7E7E7E6E6E5E4E2E1DFDEDCDB81
:10193000D9D8D7D7D6D6D6D6D6D7D7D7D6D6D5D440
:10194000D3D1CFCDCCCAC8C7C6C5C5C5C5C5C6C607
:10195000C7C7C7C7C6C5C3C1BFBDBAB8B6B4B3B29F
:10196000B2B2B3B4B6B7B8BABABABAB9B6B3B0AC21
:10197000A7A39E9B989797999EA4ACB6C3D1E0F07D
:10198000000013263747535D64696A6967635E59CF
:10199000544F4C4A4848494A4C4E50515151514F6E
:1019A0004D4B48454341403F3E3E3F3F4041414112
:1019B00041403F3D3B3937363433323131313132BA
:1019C0003232323231302E2D2B2928262524242361
:1019D000232324242423232221201E1D1B1A18170D
:1019E00016161515151515151514141211100E0DC2
:1019F0000B0A090808070707070707070605040376
:101A00000100FFFDFCFBFAF9F9F9F9F9F9F9F8F829
:101A1000F7F6F5F3F2F0EFEEECECEBEBEBEBEBEBD8
:101A2000EBEAEAE9E8E6E5E3E2E0DFDEDDDDDCDC87
:101A3000DCDDDDDDDCDCDBDAD8D7D5D3D2D0CFCE30
:101A4000CECECECECFCFCFCFCECDCCCAC9C7C5C3D9
:101A5000C1C0BFBFBFBFC0C1C1C2C2C1C0BFBDBB8B
:101A6000B8B5B3B1AFAFAFAFB0B2B4B6B7B8B8B640
:101A7000B4B1ACA7A29D999796979CA3ADB9C9DACA
:101A8000ED0000162C3F4F5C646A6B6A66615B5622
:101A9000514D4B4A4B4C4E505254545452504D4B56
:101AA0004845434242424344454546454443413FFD
:101AB0003D3B3938373737373838383838363533AB
:101AC00032302E2D2C2B2B2B2B2B2C2B2B2A292859
:101AD00026242321201F1F1F1F1F1F1F1F1E1D1C09
:101AE0001A191716151413131313131312121110B6
:101AF0000F0D0C0A09080707060606060606050468
:101B0000030100FFFDFCFBFAFAFAFAFAFAF9F9F818
:101B1000F7F6F4F3F1F0EFEEEEEDEDEDEDEDEDECCB
:101B2000EBEAE9E7E6E4E3E2E1E1E1E1E1E1E1E179
:101B3000E0DFDDDCDAD8D7D6D5D5D4D5D5D5D5D527
:101B4000D4D3D2D0CECDCBCAC8C8C8C8C8C9C9C9D9
:101B5000C9C8C7C5C3C1BFBDBCBBBABBBBBCBDBE8A
:101B6000BEBEBDBBB8B5B3B0AEACACACAEB0B2B43B
:101B7000B5B6B5B3AFAAA59F9A9695969CA4B1C1E8
:101B8000D4EA00001B34495A656B6C69645D575197
:101B90004E4C4D4F515456575755524F4C4947464E
:101BA000464748494A4A4A484644413F3E3D3D3EF1
:101BB0003E3F3F3F3E3D3B39373534333334343499
:101BC00034343332302E2D2B2A2929292A2A2A2946
:101BD000282725242221201F1F1F1F1F1F1E1D1CF9
:101BE0001B19181615151515151514141311100EAB
:101BF0000D0C0B0B0A0A0A0A0A0908070504020160
:101C0000010000000000FFFFFEFCFBF9F8F7F6F60C
:101C1000F6F6F6F5F5F4F3F2F0EFEDECECEBEBEBBA
:101C2000EBEBEBEAE8E7E5E4E3E2E1E1E1E1E1E166
:101C3000E0DFDEDCDBD9D8D7D6D6D6D7D7D7D6D516
:101C4000D3D2D0CECDCCCCCCCCCCCDCDCCCBC9C7C7
:101C5000C5C3C2C1C1C1C2C2C3C3C2C1BFBCBAB87D
:101C6000B6B6B6B7B8B9BABAB9B7B4B1AEABA9A936
:101C7000AAACAFB1B3B4B2AFA9A39C9794959BA6FD
:101C8000B7CCE50000203E55646C6C686058524F3C
:101C90004E505457595A5855514E4B4A4A4C4D4E36
:101CA0004F4E4C4A47454343434445454544423FD4
:101CB0003D3C3B3B3B3C3C3C3B3A38363433333396
:101CC0003333333331302E2C2B2B2A2B2B2B2A2939
:101CD0002826242322222222222221201E1D1B1AF2
:101CE0001A1A1A1A1919181615131211111111119D
:101CF000100F0E0D0B0A090909090808070605034C
:101D000002010000000000FFFEFDFBFAF9F8F8F701
:101D1000F7F7F7F6F5F3F2F1F0EFEFEFEFEFEEEDA7
:101D2000EBEAE8E7E7E6E6E6E6E6E5E3E2E0DFDE63
:101D3000DEDEDEDEDEDDDCDAD8D7D6D5D5D5D6D50B
:101D4000D5D4D2D0CFCDCDCDCDCDCDCDCCCAC8C6BA
:101D5000C5C4C4C4C5C5C5C4C3C1BEBCBBBBBBBC74
:101D6000BDBDBDBBB9B6B4B2B1B2B3B4B6B6B5B20F
:101D7000AFABA8A6A7A9ACB0B2B1AEA8A0989494F6
:101D80009CABC2E0000026475E6B6D685F56514F0A
:101D900052565A5C5B58534F4D4D4E505252514E15
:101DA0004B48474748494A494845434140404142DA
:101DB0004241403D3B3A393A3A3A3A393736343380
:101DC0003233333332312F2E2C2B2B2B2C2B2B2930
:101DD00028262524242424242321201E1D1D1D1DE6
:101DE0001D1C1B1A18171616161615151312100F90
:101DF0000F0E0E0E0E0D0C0A090807070707060541
:101E00000402010000000000FFFEFCFBFAF9F9F9F2
:101E1000F9F8F7F6F4F3F2F2F2F2F1F1F0EEEDEB9D
:101E2000EBEAEAEAEAE9E8E6E5E4E3E3E3E3E3E24E
:101E3000E0DFDDDCDCDCDCDCDBDAD8D7D5D5D4D503
:101E4000D5D5D4D2D1CFCECDCDCDCECDCCCAC9C7AC
:101E5000C6C6C6C6C7C6C5C3C0BFBEBEBFC0C0BF5C
:101E6000BDBBB8B7B6B7B8B9B9B8B5B2AFAEAEB01A
:101E7000B2B3B3B1ADA8A5A4A6AAAEB1AFAAA198BA
:101E80009395A2B9DA00002D51676E695F555152E2
:101E9000575B5D5B57524F4F51545554514D4B4A10
:101EA0004B4D4E4D4B484645454647464542403FC3
:101EB0003F4041403F3C3B3A3A3A3A3A3837353472
:101EC0003434343432312F2E2E2E2E2E2C2B292822
:101ED000282828272625232222212221201F1D1CD5
:101EE0001C1B1B1B1A191816161515151413121086
:101EF000100F0F0F0E0D0C0A0A0909090807060535
:101F000004030303020100FFFEFDFDFDFCFBFAF9E3
:101F1000F8F7F7F7F6F6F4F3F2F1F1F1F0F0EEED91
:101F2000ECEBEBEBEAEAE8E7E6E5E5E5E4E4E3E140
:101F3000E0DFDEDFDEDEDDDBDAD9D8D8D8D8D7D5F2
:101F4000D4D2D2D2D2D2D1CFCECCCCCCCCCCCBC9A5
:101F5000C8C6C6C6C6C6C5C4C1C0BFC0C1C1C0BE52
:101F6000BBBAB9BABBBBBAB8B5B3B2B3B5B6B5B301
:101F7000AFACABACAFB1B1AEA9A5A3A5A9AEAFABA9
:101F8000A1979299AFD30000345A6D6C62565154A8
:101F90005A5E5E59535152555756534F4D4D4F50FF
:101FA000504D4A49494A4B4A4845444445454443B3
:101FB000403F3F3F403F3D3B3A393A3A3A38363569
:101FC000343535343331302F2F2F2F2D2C2A2A2A18
:101FD0002A2A282625252525242321202020201FC4
:101FE0001E1C1B1A1A1A1A18171615151514131277
:101FF000101010100F0E0C0B0B0B0A0A0907060528
:10200000050505030201000000FFFEFDFBFBFBFBD5
:10201000FAF9F7F6F6F5F5F5F4F2F1F0F0F0F0EE86
:10202000EDECEBEBEBEAE9E8E6E6E6E6E5E4E2E137
:10203000E0E0E0E0DFDDDCDBDBDBDBDAD8D6D6D6E8
:10204000D6D6D4D3D1D1D1D1D0CFCDCCCBCBCCCB94
:10205000CAC8C6C6C6C7C6C5C3C1C0C1C1C1C0BD46
:10206000BCBBBBBCBCBBB8B6B5B6B7B7B6B3B0B0FB
:10207000B1B3B3B1ADAAA9ABAEAFADA7A2A2A6ACA6
:10208000AFAA9E9493A6CC00003D646F655752574B
:102090005E605B555255585855514F515353504DF2
:1020A0004C4D4E4E4B4848494A49464444454544A8
:1020B00042404040403F3D3B3B3C3C3A383737375D
:1020C00037363433333332312F2E2E2E2E2C2B2A0B
:1020D0002A2A292826252626252322212121201FB8
:1020E0001D1D1D1D1C1A191818181715141414136A
:1020F0001211100F0F0F0E0C0B0B0B0A090807071C
:10210000070605030202020100FFFEFEFEFDFBFAC8
:10211000F9F9F9F8F7F6F5F5F5F4F2F1F1F1F0EF78
:10212000EEEDECECECEBE9E8E8E8E7E6E4E3E3E32A
:10213000E3E1E0DFDFDFDEDDDBDADADBDAD8D7D6DA
:10214000D6D6D5D4D2D2D2D2D1CFCECDCDCDCCCA87
:10215000C9C9C9C9C8C6C4C4C5C5C3C1C0C0C0C037
:10216000BEBCBBBBBCBCBAB7B6B7B8B8B5B2B2B3ED
:10217000B4B3B0ADADAFB1AFABA8A8ABAEABA5A09B
:10218000A2A9AEA99B919CC30000456B6C5C535700
:102190005F605954555A5A5552525555524F4F51E6
:1021A000514E4B4B4D4D4B48484949474544454599
:1021B0004341404141403D3C3D3D3C3A393939384D
:1021C000363535353433313132312F2E2E2E2D2BFD
:1021D0002A2A2A2928262626252423222222201FAD
:1021E0001E1E1E1C1B1B1B1A19171717161514135E
:1021F000131311100F0F0F0E0C0B0B0B0A0908080D
:102200000706050404040301000000FFFDFCFCFCBC
:10221000FBFAF9F8F8F7F6F5F5F5F4F2F1F1F1F06B
:10222000EFEDEDEDECEBEAE9E9E9E7E6E5E5E5E41C
:10223000E2E2E2E1E0DEDEDEDDDCDBDADADAD8D7CC
:10224000D6D6D6D5D3D2D2D2D1CFCECFCFCDCCCB7E
:10225000CBCBCAC8C7C7C7C6C4C3C3C4C3C0BFBF2C
:10226000C0BFBDBBBBBCBBB9B7B7B8B8B5B3B3B5DE
:10227000B5B2AFAFB1B1AEABABAEAEABA6A6ABAC89
:10228000A7A0A1A9ADA49495BB00004F6F645557BA
:10229000605F57555A5B5653555855515154524FDC
:1022A0004E50504D4B4C4D4A48484948454546458F
:1022B00043424242403F3F3F3E3C3B3C3B39383942
:1022C000383735353534323232312F2F2F2E2D2CF1
:1022D0002C2B2A292828272625252523222222209F
:1022E0001F1F1F1D1C1B1B1B191818181615151551
:1022F00014121212110F0F0F0E0D0B0B0B0A080800
:102300000807060505040302020100FFFEFEFDFCAE
:10231000FBFBFAF9F8F8F8F6F5F5F5F3F2F1F1F15F
:10232000EFEEEEEEECEBEBEBEAE8E8E8E7E5E5E50F
:10233000E4E3E1E1E1E0DEDEDEDDDBDBDBDAD9D8C0
:10234000D8D7D6D5D4D4D3D2D1D1D1CFCECECECC6E
:10235000CBCBCBC9C8C7C8C7C5C4C5C4C2C1C1C11E
:10236000C0BEBEBEBDBBBABBBBB8B7B8B8B6B3B4CF
:10237000B5B3B0B0B2B1AEACAFAFABA8ABADAAA580
:10238000A6ABA9A1A0A9AB9C91B10000596F5A5569
:10239000615F56585D5955585954535654515153CD
:1023A000504E4F4F4C4C4D4B494A4A484647464485
:1023B0004444434141413F3E3F3E3C3C3C3A393935
:1023C0003937363735343434323131302F2E2E2DE3
:1023D0002C2C2B2A29292827262625232323212193
:1023E00021201E1E1E1C1B1B1B1919181716161543
:1023F000141313121110100F0E0E0D0C0B0B0A09F3
:1024000008080706050503030302000000FEFDFDA2
:10241000FDFBFBFAF9F8F8F7F6F5F5F4F3F2F2F153
:10242000F0F0EFEEEDEDECEBEAEAE9E8E7E7E5E501
:10243000E5E4E2E2E2E0DFDFDFDDDDDDDBDADAD9B1
:10244000D8D7D7D6D5D4D4D3D2D2D1D0CFCFCECC63
:10245000CCCCCBC9CAC9C7C7C7C6C4C4C4C2C1C211
:10246000C1BFBFBFBDBCBCBCBAB9BAB8B6B6B7B5C0
:10247000B3B4B4B1B1B2B0ADAFAFACAAADACA7A874
:10248000ABA7A3A8AAA19FABA691A70000616A551C
:102490005D62575A5E57575B5655585452555350C4
:1024A00052514E4F4F4C4D4D4A4A4A484848464576
:1024B00046444343424141403E3F3E3C3C3C3A3A25
:1024C0003A3837373635353433333230302F2E2ED5
:1024D0002D2C2C2B2A292927272725242423222287
:1024E0002120201F1E1D1D1B1B1B19191817161636
:1024F000151414131212110F0F0E0D0D0C0B0B0AE5
:1025000009080806060604040302010100FFFFFE95
:10251000FDFCFCFAFAFAF8F8F7F6F5F5F4F3F3F245
:10252000F1F1EFEEEEEDECECEBEAEAE9E8E7E7E5F6
:10253000E5E5E3E3E2E1E0E0DFDEDEDDDCDCDBD9A4
:10254000D9D9D7D7D6D5D4D4D3D2D2D1D0D0CECD55
:10255000CDCCCBCBCAC9C9C8C6C6C6C4C4C4C2C107
:10256000C2C0BFBFBEBDBDBCBABBBAB8B8B8B6B6B4
:10257000B6B3B3B4B1B1B2AFAEB0ADABAEACA8AB65
:10258000AAA5A9A9A2A6A99EA3AB969F00006961CE
:102590005763595B5E575B595659555556525453BC
:1025A0005152504F504D4E4D4B4C4A494A47484767
:1025B00045464443434141413F403E3D3D3C3B3B1A
:1025C00039393837373635353333323131302F2FCB
:1025D0002D2D2C2B2B2A292927272625252423237B
:1025E0002121201F1F1E1D1D1B1B1A19191817172B
:1025F00015151413131211110F0F0E0D0D0C0B0BDB
:102600000909080707060505040302010100FFFF89
:10261000FEFDFCFBFBFAF9F9F8F7F7F5F5F4F3F337
:10262000F2F1F1EFEFEEEDEDECEBEBE9E9E8E7E7E6
:10263000E6E5E5E3E3E2E1E1E0DFDFDDDDDCDBDB96
:10264000DAD9D9D7D7D6D5D5D4D3D3D1D1D0CFCF46
:10265000CECDCDCBCBCAC9C9C8C7C7C5C5C4C3C3F6
:10266000C2C0C1BFBFBFBDBDBCBABBB9B8B9B6B7A8
:10267000B6B4B5B3B2B3B0B1B0AEAFADACAEAAAB59
:10268000ABA7AAA7A5A9A2A5A79DA99F9700006E81
:10269000595F5E5A5F585D575958565854565354AF
:1026A0005251524F514E4F4D4C4C4A4B494948475D
:1026B000474546444442424140403E3F3D3D3C3B0D
:1026C0003B39393838373636343433323131302FBC
:1026D0002F2D2D2C2B2B2A2A28282726262424236D
:1026E000232221201F1F1E1E1C1C1B1A1A1818171C
:1026F000171615141313121110100F0E0E0D0C0BCC
:102700000A0A09090707060505040302020100FF7A
:10271000FEFEFDFCFBFBFAF9F9F7F7F6F6F5F4F32C
:10272000F2F2F1F0F0EFEEEDEDECEBEAE9E9E8E8DA
:10273000E6E6E5E4E4E2E2E1E1E0DFDEDDDDDCDC8B
:10274000DADAD9D8D8D6D6D5D5D4D3D3D1D1D0CF3B
:10275000CFCECDCCCCCACAC9C8C8C7C7C5C5C4C3EB
:10276000C3C1C2C0C0BFBEBEBCBCBABBB9B9B8B79A
:10277000B7B5B6B4B4B3B1B2AFB1AEAFAEACADAA4B
:10278000ACA8AAA8A7A9A3A8A1A6A2A1A792001035
:102790000082843E100082843E100082843E10003D
:1027A00082843E100082843E1100828C3E120082A0
:1027B000943E140082A03E150082A83E160082B00E
:1027C0003E170082BC3E190083C83D1A0083D43DE9
:1027D0001C0083E03D1D0083EC3D1F0083FC3D2178
:1027E00000830C3E2300831C3E2500832C3E2700E3
:1027F000833C3E2A0083503E2C0084643D2F00849D
:10280000783D320084903D350084A83D380084C076
:102810003D3B0084D83D3E0084F43D420085143D9C
:10282000460085343D4A0085543D4F0085783D5330
:1028300000859C3D580086C43C5D0086EC3C6300EE
:1028400086183D690086483D6F0087783C75008793
:10285000AC3C7C0087E43C840087203D8B00885C96
:102860003C940088A03C9C0088E43CA500892C3C5A
:10287000AF0089783CB9008ACC3BC4008A203CCFA9
:10288000008B7C3BDB008BDC3BE8008B443CF600A0
:102890008CB03B04018D243B13018D9C3B23018EA6
:1028A0001C3B34018EA03B46018F303B580190C445
:1028B0003A6C0190643B8101910C3B970192BC3AC8
:1028C000AF0193783AC701943C3AE101950C3AFD87
:1028D0000196E8391A0297D039380298C43959025A
:1028E00099C8397B029AD8399E029CF438C4029D5B
:1028F0002439EC029E64391603A0B4384203A114B3
:10290000397103A38838A203A51038D503A6AC38C3
:102910000C04A860384504AA28388104AC0838C0E3
:1029200004AE00380205B014384805B340379105AD
:10293000B58837DE05B8F0362E06BB74368206BD84
:102940001437DB06C0D8363807C3C0369907C6C867
:1029500036FE07CAF4356808CD4436D708D1BC35F1
:102960004B09D55835C409D82036420ADD1035C583
:102970000AE12C354E0BE57035DC0BEAE434700CC3
:10298000EE8035090DF34C35A80DF844354D0EFD9C
:102990006835F70E03B834A60F0834355B100EDC2B
:1029A00034161113B035D51119AC3599121FCC3529
:1029B00062132514362F142C7835FF1432FC35D2CF
:1029C00015389436A7163F3C367E1745F436551811
:1029D0004BAC372B19525C37001A580038D01A5EAE
:1029E00084389C1B64E038601C69003A1A1D6ED460
:1029F0003AC91D73483B691E774C3CF81E7BC03CAE
:102A0000F81E7BC03CF81E7BC03CF81E7BC03C120D
:102A10000082843E120082843E120082843E1200B4
:102A200082843E120082843E1300838C3D15008315
:102A3000943D1600839C3D170083A83D190083B088
:102A40003D1A0083BC3D1C0083C83D1D0083D43D5E
:102A50001F0083E03D210083EC3D230083FC3D25E6
:102A60000084083D270084183D2A0084283D2C005E
:102A7000843C3D2F00844C3D310084603D34008413
:102A8000783D3700858C3C3B0085A43C3E0085BCEE
:102A90003C420085D83C460085F43C4A0085103D08
:102AA0004E0086303C530086503C580086743C5D96
:102AB0000086983C620087C03B680087E83B6E0058
:102AC00087143C750087403C7C0088703B830088FD
:102AD000A43B8A0088DC3B920089143B9B0089540C
:102AE0003BA40089943BAE008AD83AB8008A203BC8
:102AF000C2008A6C3BCE008BBC3ADA008B103BE6FE
:102B0000008C6C3AF4008CC83A02018D2C3A110109
:102B10008D983A20018E083A31018F803942018F19
:102B2000FC3955019080396801910C397D0191A0E3
:102B3000399301923839AA0193DC38C201948C3858
:102B4000DC01954038F701960038130297CC3731F5
:102B50000298A437510299843773029A7437960207
:102B60009B7037BB029C7837E2029D90370B039F26
:102B7000B4363703A0EC366503A230369503A3883C
:102B800036C703A5F035FD03A76C353504A8FC3521
:102B90007004AAA035AE04AC5835EF04AE2C353322
:102BA00005B010357B05B21435C705B52C341606B3
:102BB000B760346906BAB033C006BC1C341B07BF0B
:102BC000A8337B07C25033DF07C51C334808C80849
:102BD00033B508CB14332809CF4432A009D29C3234
:102BE0001D0AD61432A00ADAB831280BDE8431B5BA
:102BF0000BE27431490CE69431E30CEAD831830DD1
:102C0000EF4C31290EF4EC30D50EF8B831870FFDBA
:102C1000AC31401003D430FF10082431C4110DA092
:102C2000319012134C31611319203138141E1C32AB
:102C30001515244032F7152A8C32DD1631F431C8CF
:102C400017378032B6183D2033A71943D8339A1A64
:102C5000499C348E1B506434811C562835721D5C8F
:102C6000E035601E628036481F67F43728206D2CDF
:102C700038FD20711C3AC42176AC3A7B227AC03BE5
:102C80007B227AC03B7B227AC03B7B227AC03B15F9
:102C90000083843D150083843D150083843D150029
:102CA00083843D150083843D1600838C3D1700838B
:102CB000943D1800839C3D1A0083A43D1C0084B001
:102CC0003C1D0084BC3C1F0084C43C210084D03CDB
:102CD000230084DC3C250084EC3C270084F83C295C
:102CE0000084083D2C0085183C2E0085283C3100CE
:102CF00085383C3400854C3C370085603C3A008583
:102D0000743C3E0086883B410086A03B450086B867
:102D10003B490086D43B4E0086F03B5200870C3B7B
:102D2000570087283B5C00874C3B6200876C3B6701
:102D30000088903A6D0088B83A740088E03A7A00CA
:102D4000880C3B820089383A890089683A91008969
:102D50009C3A99008AD039A2008A083AAC008A4489
:102D60003AB6008B8439C0008BC839CB008C0C3943
:102D7000D7008C5839E4008DA438F1008DF838FE66
:102D8000008E50380D018EAC381D018F10382D018A
:102D90008F78383E0190E4375001915837630191A4
:102DA000D03778019250378D0193D836A3019468BB
:102DB00036BB01940037D40195A036EF0196483612
:102DC0000B0297F835280298B03547029978356894
:102DD000029A44358A029B2035AE029C0435D40207
:102DE0009DF834FC029FF8332703A004345303A159
:102DF00020348203A34833B303A48033E703A6CC73
:102E0000321E04A824325704A990329304AB103226
:102E1000D304ADA0311505AF48315B05B10431A431
:102E200005B3D430F105B5BC304206B7BC309706C7
:102E3000BAD82FEF06BC0C304C07BF582FAE07C2D4
:102E4000C42E1408C44C2F7F08C7F02EEE08CAB851
:102E50002E6309CD9C2EDD09D1A42D5D0AD4CC2D85
:102E6000E20AD81C2D6D0BDB902DFE0BDF282D9573
:102E70000CE3E82C330DE7D02CD70DEBE02C810EC2
:102E8000F01C2C330FF4802CEB0FF9102CAA10FE41
:102E9000D02B701102BC2C3D1208D02B12130D1830
:102EA0002CED1312882CD01418282CBA151DF42CD4
:102EB000AB1623EC2CA21729102DA0182F5C2DA3E4
:102EC0001935CC2DAC1A3B602EBB1B41142FCD1CE9
:102ED00047E02FE21D4DC430FA1E53B43113205980
:102EE000A8322A215F98333F226574344F236A3415
:102EF0003658246FC4375525741039452678003B61
:102F0000452678003B452678003B452678003B1750
:102F10000084843C170084843C170084843C1700A0
:102F200084843C170084843C1800848C3C1A008400
:102F3000943C1B00849C3C1D0084A43C1F0084B076
:102F40003C210085B83B220085C43B250085D03B51
:102F5000270085DC3B290085E83B2B0085F83B2ECC
:102F60000086043B310086143B340086243B370046
:102F700086343B3A0086483B3D00865C3B410087F7
:102F8000703A450087843A4900879C3A4D0087B4DF
:102F90003A510088CC39560088E8395B0088043AF9
:102FA000600088243A66008944396C00896439726B
:102FB0000089883979008AAC3880008AD438870043
:102FC0008A00398F008B2C3897008B5838A0008BE3
:102FD0008C38A9008CC037B3008CF837BD008D3019
:102FE00037C8008D6C37D4008DB037E0008EF436D2
:102FF000ED008E3C37FA008F8836080190D83517DF
:1030000001902C362701918835380191E8354A0125
:10301000924C355C0193B43470019324358501944E
:1030200098349B01951434B201969833CA019620C6
:1030300034E40197B033FF019848331B0299EC3216
:1030400039029A943259029B48327A029C00329D8E
:10305000029DC831C2029E9831E802A0743011036B
:10306000A158303C03A24C306903A44C2F9803A50F
:10307000582FCA03A6702FFF03A8982E3604A9D094
:103080002E6F04AB182EAC04AD702DEC04AFD82C11
:103090002F05B0542D7505B2E02CBF05B4802C0C63
:1030A00006B6342C5D06B9002BB206BBE02A0B072E
:1030B000BDD82A6807C0E829CA07C2102A3008C547
:1030C00050299B08C7B0290B09CA28298009CDBC03
:1030D00028FA09D070287A0AD34428FF0AD738275B
:1030E0008B0BDA4C271C0CDD8427B40CE1DC265258
:1030F0000DE55C26F70DE90026A30EEDCC25560F55
:10310000F1C4251010F5E025D210F928269C11FEF7
:103110009C256D12023C264713070C2628140C0828
:10312000261215113426051616902600171B1C278B
:10313000031821D8260F1926C427241A2CE027416A
:103140001B322C28661C38A828941D3E5029C81E06
:1031500044242A04204A1C2B462150382C8D225608
:10316000742DD8235CC42E262561243174266788EB
:1031700032C1276DE0330929722036482A7730386A
:10318000482A773038482A773038482A7730381A32
:103190000085803B1A0085803B1A0085803B1A0021
:1031A00085803B1A0085803B1B0085883B1D008580
:1031B000903B1E0085983B200086A43A220086ACF6
:1031C0003A240086B83A260086C03A290086CC3ACE
:1031D0002B0086D83A2E0087E439300087F4393343
:1031E0000087003A360087103A39008820393C00C1
:1031F0008830394000884439440088543948008870
:1032000068394C008980385000899438550089AC61
:10321000385A008AC4375F008AE03765008AFC3775
:103220006A008B183770008B383777008B58377EE1
:10323000008C7C3685008CA0368D008CC4369500C1
:103240008DF0359D008D1836A6008E4835B0008E65
:103250007435BA008EA835C4008FDC34CF008F14CB
:1032600035DB00905034E800909034F50091D03375
:1032700002019218331101926033200193AC323075
:10328000019300334201945432530195B0316601E9
:103290009610317A019674318F0197DC30A5019830
:1032A0004C30BD0199C42FD5019A3C2FEF019AC033
:1032B0002F0A029B482F27029CD82E45029D702E74
:1032C00065029E102E86029FB82DA902A0682DCE01
:1032D00002A2242CF502A3E82B1E03A4B42B48035E
:1032E000A58C2B7503A76C2AA403A85C2AD603A976
:1032F000542A0A04AB5C294104AC70297A04AE90CC
:1033000028B604B0C027F504B1FC273705B34C2715
:103310007D05B5A826C505B714261206B994256102
:1033200006BB2825B506BDCC240C07BF842468073E
:10333000C15424C807C438232C08C630239508C9B3
:1033400040220309CB68227509CEAC21ED09D108D2
:10335000216A0AD48020ED0AD71020760BDAC41F28
:10336000050CDD901F990CE0801F350DE3901FD7F1
:103370000DE7C01E800EEA141F310FEE901EE90FFC
:10338000F2301EA910F6F41D7111FAE41D4112FE6F
:10339000001E1A1302441EFC1307B81DE7140B5835
:1033A0001EDC15102C1EDB1615301EE41719681FC5
:1033B000F8181FD81E171A247C1F411B2958207685
:1033C0001C2E7021B71D34C021041F3A50225D20ED
:1033D0003F1C24C32145242534234B6C26B12451A2
:1033E000EC273A2657A829CE275D9C2B6C2963C071
:1033F0002D122B691030BE2C6E80336F2E74043664
:103400006F2E7404366F2E7404366F2E7404361CBF
:10341000008780391C008780391C008780391C0098
:103420008780391C008780391E00878839200087F3
:1034300090392200879839240087A039260088AC6B
:1034400038280088B4382A0088C0382D0088C83849
:10345000300088D438320089E037350089F03738B9
:103460000089FC373C00890C383F008A1C37430038
:103470008A2C3746008A3C374B008B50364F008BE6
:10348000643653008B783658008C8C355D008CA4E4
:103490003563008CBC3568008DD4346E008DF034FB
:1034A00074008D0C357B008E283482008E48348960
:1034B000008F683391008F8C33990090B032A20056
:1034C00090D832AB00910032B500912C32BF0092FF
:1034D0005831CA00928C31D50093BC30E10093F48E
:1034E00030ED00942C30FB00946430090195A42F3A
:1034F000170196E42E2701962C2F370197742E483A
:103500000198C02D5A0199102D6D0199682D8101E6
:103510009AC02C96019B202CAC019C802BC3019D52
:10352000EC2ADC019E582AF5019FCC2910029F4409
:103530002A2D02A0C4294A02A148296A02A3D4273D
:103540008B02A46827AD02A50427D102A6A826F7FE
:1035500002A750261F03A804264903AAC024750306
:10356000AB8824A303AC5424D403AE30230604AFA9
:1035700010233B04B100227304B2FC21AD04B4005B
:1035800021EA04B514212A05B730206D05B95C1F66
:10359000B305BB981EFD05BCE01E4906BE3C1E9A45
:1035A00006C0A41DEE06C21C1D4607C4A81CA20727
:1035B000C7441B0208C9F41A6608CBB41ACF08CD59
:1035C0008C1A3C09D07819AF09D27C19270AD594F6
:1035D00018A30AD8C417260BDA1018AE0BDD74171F
:1035E0003D0CE0F016D10CE38C166C0DE644160E83
:1035F0000EE91C16B80EEC1416680FF02C152110ED
:10360000F36C15E210F7CC14AB11FA54157D12FED1
:103610000415591302E0143F1406E4142F150A1C74
:10362000152A160E80153017131C15431817EC15A4
:1036300062191CF8158F1A204017CB1B25C81715C7
:103640001D2A94186F1E2FA419DB1F35041A582148
:103650003AB41BE82240B81C8C2445181F45264B61
:10366000D420152851F422FC29578025FB2B5E78A5
:1036700027132E64E02A46306ABC2E923271103233
:103680009232711032923271103292327110321FB6
:1036900000897C371F00897C371F00897C371F0019
:1036A000897C371F00897C37210089843723008972
:1036B0008C37250089943727008A9C362A008AA8EF
:1036C000362C008AB0362F008BBC3531008BC435C8
:1036D00034008BD03537008BDC353A008CE8343E33
:1036E000008CF83441008C043545008D14344900B9
:1036F0008D24344D008E343351008E443356008E69
:1037000058335B008F6C3260008F8032650090947C
:10371000316B0090AC31710090C431780091E03091
:103720007E0091F83085009214308D0092343095EF
:103730000093542F9D0093742FA60094982EAF00F1
:1037400095BC2DB80095E02DC300960C2DCD0096AC
:10375000342DD90097642CE40098902BF10098C484
:103760002BFE0099F82A0C019A302A1A019A682A2D
:103770002A019BA8293A019CE8284B019D2C285C32
:10378000019D70286F019EBC2783019F0C27970124
:10379000A05C26AD01A1B425C301A20C25DB01A3C9
:1037A0006C24F401A4D0230F02A53C232A02A6A86E
:1037B000224702A71C226502A894218502A9142190
:1037C000A602AA9820C902AB2420EE02ADB81E14AE
:1037D00003AE501E3C03AFF01D6603B0981D92036C
:1037E000B2481CC003B3001CF003B5C01A2204B6D3
:1037F000881A5704B85C198E04B93819C804BB205C
:10380000180405BC10184305BE0C178505C0141616
:10381000CA05C128161206C348155D06C57414AC46
:1038200006C7B013FE06C9F8125307CB4C12AD07FA
:10383000CDB4110A08CF28116C08D1B010D208D32A
:1038400048103C09D5F00FAB09D7AC0F1F0ADA7C42
:103850000E980ADC600E160BDF580D9A0BE1680D0E
:10386000240CE4900CB40CE6D00C4B0DE92C0CE8C5
:103870000DECA00B8C0EEF300B380FF2E00AEC0FC2
:10388000F5B00AA910F8A40A6E11FBB80A3C12FEA2
:10389000F00A151302540AF81305E00AE714099C0C
:1038A0000AE2150D880AE91610A40BFF1714FC0B89
:1038B000241918900C591A1D640C9F1B217C0DF8BB
:1038C0001C26E00D661E2A980FEA1F2FA8108721DC
:1038D000341C12402339001415253F54150C27447D
:1038E000301827294A9C1A6B2B51AC1CDD2D5774BC
:1038F0002080305E00245D336574287A366CE82DB4
:103900007A366CE82D7A366CE82D7A366CE82D0024
:103910007055645860585E585B575A555854565302
:1039200054515350514F504D4E4C4C4A4B494947BE
:1039300048464644454343424240403F3F3D3D3C6C
:103940003C3A3A393937373636343433333131301B
:103950002F2E2E2D2C2B2B2A2928282726252524CF
:1039600023222221201F1F1E1D1C1C1B1A1919187F
:1039700017161615141313121110100F0E0D0D0C2F
:103980000B0A0A09080707060504040302010100DF
:10399000FFFFFEFDFCFCFBFAF9F9F8F7F6F6F5F48B
:1039A000F3F3F2F1F0F0EFEEEDEDECEBEAEAE9E83B
:1039B000E7E7E6E5E4E4E3E2E1E1E0DFDEDEDDDCEB
:1039C000DBDBDAD9D8D8D7D6D5D5D4D3D2D2D1D09B
:1039D000CFCFCDCDCCCCCACAC9C9C7C7C6C6C4C44F
:1039E000C3C3C1C1C0C0BEBEBDBDBBBCBABAB8B9FD
:1039F000B7B7B5B6B4B4B2B3B0B1AFB0ADAFACADAC
:103A0000AAACA8ABA6A9A5A8A2A8A0A89CAB900008
:103A1000000103040607090A0C0D0F1012131516F6
:103A200018191B1C1E1F2122242527282A2B2D2E66
:103A3000303133343637393A3C3D3F4042434546D6
:103A400048494B4C4E4F5152545557585A5B5D5E46
:103A5000605E5D5B5A5857555452514F4E4C4B491E
:103A60004846454342403F3D3C3A3937363433318E
:103A7000302E2D2B2A2827252422211F1E1C1B19FE
:103A80001816151312100F0D0C0A0907060403016E
:103A900000FEFDFBFAF8F7F5F4F2F1EFEEECEBE9DE
:103AA000E8E6E5E3E2E0DFDDDCDAD9D7D6D4D3D14E
:103AB000D0CECDCBCAC8C7C5C4C2C1BFBEBCBBB9BE
:103AC000B8B6B5B3B2B0AFADACAAA9A7A6A4A3A12E
:103AD000A0A1A3A4A6A7A9AAACADAFB0B2B3B5B636
:103AE000B8B9BBBCBEBFC1C2C4C5C7C8CACBCDCEA6
:103AF000D0D1D3D4D6D7D9DADCDDDFE0E2E3E5E616
:103B0000E8E9EBECEEEFF1F2F4F5F7F8FAFBFDFE85
:103B1000007B137B137B137B137B137B137B137B48
:103B2000137B137B137B137B137B137B137B137B25
:103B3000137B137B137B137B137B137B137B137B15
:103B4000137B137B137B137B137B137B137B137A06
:103B5000127A127A12791179117911781078107815
:103B600010770F770F770F760E760E760E750D7530
:103B70000D750D740C740C740C730B730B730B724A
:103B80000A720A720A710971097109700870087065
:103B9000086F076F076F076E066E066E066D056D80
:103BA000056D056C046C046C046B036B036B036A9A
:103BB000026A026A026901690169016901690169B0
:103BC00001680068006800680068006800680068B4
:103BD0000068000F390F390F390F390F390F390FBE
:103BE000390F390F390F390F390F390F390F390F95
:103BF000390F390F390F390F390F390F390F390F85
:103C0000390F390F390F390F390F390F390F390F74
:103C1000398E268E268E268D258D258D258C248CFD
:103C2000248C248B238B238B238A228A228A228929
:103C30002189218921882088208820871F871F8744
:103C40001F861E861E861E851D851D851D841C845F
:103C50001C841C831B831B831B821A821A821A8179
:103C600019811981198018801880187F177F177F94
:103C7000177E167E167E167D157D157D157D157DAC
:103C8000157D157C147C147C147C147C147C147CB1
:103C9000147C147C1400000000250028002B000078
:103CA000000000240027002A000404040404040483
:103CB00004020202020202030303030303010204DB
:103CC000081020408001020408102001020408109E
:103CD000200011241FBECFEFD8E0DEBFCDBF14E01F
:103CE000A0E0B1E0E6EFF8E702C005900D92A63D36
:103CF000B107D9F728E0A6EDB4E001C01D92A536C2
:103D0000B207E1F70E94A1220C94793C0C940000C8
:103D100090E0FC01E354F34C24918755934CFC0153
:103D20008491882399F090E0880F991FFC01E15657
:103D3000F34CA591B491FC01EB56F34C8591949111
:103D40008FB7F894EC91E22BEC938FBF089510920B
:103D5000D5078FEF8093D0078093D1078093D20748
:103D60008093D307E6EDF7E080E011928F5F803813
:103D7000E1F7109256081092CC0781E08093CD07AE
:103D800082E08093CE0793E09093CF071092C8070C
:103D90001092C9071092CA071092CB078093B507FB
:103DA0009091AF079093B3078093B2078091AE07CD
:103DB0008093B00708951F93CF93DF93803108F06D
:103DC00063C3C82FD0E0FE01E059FD4F80818033EE
:103DD00008F03EC11092A607FE01E05AFD4F808117
:103DE0008F5F8E7F81958093A507FE01E05AFD4F7E
:103DF00080818F538E7F81958093A407FE01E05BC5
:103E0000FD4F808190E001969595879540EC489F05
:103E10009001499F300D11243093A307FE01E05A11
:103E2000FD4F8081803308F01FC11092A707FE016B
:103E3000E05CFD4F8081803108F022C180ED8093ED
:103E40008405FE01E05DFD4F80818054990B880F51
:103E5000991F80938305FE01E05EFD4F80818230D3
:103E600020F082508C3708F08BE790E0959587958D
:103E70009595879580938505FE01E05FFD4F8081D4
:103E80008D3708F08CE7843008F484E08093AB072A
:103E9000FE01E050FE4FE081F0E0349614E0F5952D
:103EA000E7951A95E1F7EE0FFF1FEC53FB4F80816A
:103EB00091819093AA078093A907FE01E051FE4FDC
:103EC00080818D3708F4E2C08CE78054990B880F0D
:103ED000991F8093A807FE01E052FE4F8081803237
:103EE00008F0D9C010927D05FE01E053FE4F80819D
:103EF0008F3709F0D8C080E48093B407FE01E05406
:103F0000FE4F80818F3709F0D3C08FEF80939A07DF
:103F1000FE01E05AFD4F808190E00196982F88279E
:103F200088279E7F9093990780939807FE01E0551C
:103F3000FE4F80818F3709F0C0C080E48093AF07C7
:103F4000FE01E056FE4F808180938205FE01E05A1B
:103F5000FD4F908190938105903208F0CCC089315B
:103F600008F0B0C080EA80937F05809380051092AE
:103F70007E05FE01E057FE4F80811FE7803738F451
:103F800010E6803520F410E0803208F010E48091D3
:103F9000D407811751F01093D4070E94A71E81E027
:103FA000111101C080E080937C05FE01E05AFD4FB5
:103FB00080818093C707FE01E05AFD4F80818031E8
:103FC00008F0C6C01092BA07FE01E058FE4FE0812B
:103FD000F0E03196EE7FF170EE5BFB4F80819181D6
:103FE0009093A2078093A107FE01E059FE4F8081C4
:103FF00090E00196959587958093AC07FE01E05A75
:10400000FE4F8081889FC001112481E0890F809339
:10401000B707FE01E05BFE4F80818093A007FE01A1
:10402000E05CFE4F808180939F072091A007803243
:1040300008F034C180EA293108F4ADC0203308F01B
:1040400097C02153330B220F331F220F331F98C009
:10405000803520F482E08093A607BECE803710F42E
:1040600084E0F9CF81E0F7CF803520F482E08093BF
:10407000A707DDCE803710F485E0F9CF81E0F7CFD8
:10408000803710F48054DBCE80E3D9CE843008F042
:104090001CCF84E01ACF803620F481E080937D0528
:1040A00023CF82E0FBCF90E003969595879524CFB0
:1040B00090E003969595879529CF90E00396959586
:1040C00087953CCF803338F48153990B880F991F23
:1040D000880F991F48CF803538F48E53990B9595EA
:1040E0008795959587953FCF873618F48F54990B10
:1040F000EDCF80E638CF10927F059036E8F4893115
:1041000010F480EA32CF803338F48153990B880F52
:10411000991F880F991F29CF803538F48E53990B3A
:10412000959587959595879520CF873618F48F5468
:10413000990BEDCF80E619CF10928005811101C057
:1041400081E08054990B880F991F80937E0511CFD1
:10415000803320F481E08093BA0736CF803510F4A5
:1041600082E0F9CF803710F483E0F5CF84E0F3CF1D
:10417000203558F42E53330B3595279535952795D3
:1041800020939D0720939E070AC0273618F42F54CA
:10419000330B59CF80E680939D0780939E07109242
:1041A0009C07FE01E056FE4F80818D3708F4A2C0C7
:1041B0008CE78054990B880F991F80939B07FE0111
:1041C000E052FE4F8081880F8F5F80938D05209194
:1041D0008C05829F9001112430938B05FE01E05ADB
:1041E000FD4F20812F3709F08AC090E49093B107EA
:1041F000FE01E05DFE4F20812F3709F088C09FEF60
:1042000090939707FE01E05AFD4F208130E02F5F29
:104210003F4F322F222722273E7F3093960720934D
:104220009507FE01E055FE4F20812F3709F077C03A
:1042300090E49093AE07FE01E05EFE4F90819032D5
:1042400008F475C0903608F074C091E04091910771
:1042500020919007291709F47BC090939007E0E91B
:10426000F5E060E977E021913191DF011297359512
:1042700027952D933C936E177F07A9F7442309F4E4
:104280005AC010928F0510928E052FEF20938C0547
:10429000829F9001112430938B055AC010929D0784
:1042A0008036E8F480EA293108F477CF203338F4F7
:1042B0002153330B220F331F220F331F63CF2035BF
:1042C00038F42E53330B35952795359527955ACFCE
:1042D000273618F42F54330BEDCF80E65ECF1092C3
:1042E0009E07211101C021E02054220F2195209327
:1042F0009C0757CF843008F05CCF84E05ACF30E081
:104300002D5F3F4F359527952093B10771CF30E052
:104310002D5F3F4F359527952093970773CF30E05A
:104320002D5F3F4F359527952093AE0784CF90E0C2
:104330008DCF92E08BCF90938F05923009F47EC0A1
:1043400008F079C0992309F47DC0913009F47EC04A
:10435000FE01E05FFE4F2081223008F07AC091E03C
:1043600090939307FE01E056FE4F20812E3708F010
:104370007AC030E02F5F3F4F359527952093940703
:10438000FE01E056FE4F20812E3708F070C030E06D
:104390002F5F3F4F3595279520939207FE01E05000
:1043A000FF4F9081993108F098E190938805209112
:1043B000890530918A052F5F3F4F53E0359527954A
:1043C0005A95E1F7929FB001939F700D1124759556
:1043D0006795759567957093870560938605C05AB4
:1043E000DD4F588121E0503408F420E0241709F40F
:1043F0004BC09091900720939107E0E9F5E060E9C8
:1044000077E021913191DF011297359527952D9312
:104410003C936E177F07A9F7503468F110928F050F
:1044200010928E059FEF90938C05899FC0011124F7
:1044300090938B0529C0933009F08ACF90938E0515
:1044400021E824CF10928E0525EB20CF90938E0586
:10445000FBCF30E02E5F3F4F35952795359527955B
:10446000209393077FCF9FE39093940789CF9FE397
:104470009093920793CF90938F05923069F040F418
:10448000992371F0913081F0DF91CF911F910895C0
:10449000933011F09430C1F790938E0591E8C3CF1B
:1044A00010928E0595EBBFCF90938E05FBCF1F9298
:1044B0000F920FB60F9211242F933F938F939F93D8
:1044C000AF93BF938091610890916208A0916308B7
:1044D000B09164083091600823E0230F2D3758F520
:1044E0000196A11DB11D20936008809361089093EF
:1044F0006208A0936308B093640880915C0890916F
:104500005D08A0915E08B0915F080196A11DB11DE4
:1045100080935C0890935D08A0935E08B0935F0859
:10452000BF91AF919F918F913F912F910F900FBEAF
:104530000F901F90189526E8230F0296A11DB11D1C
:10454000D2CFCF93DF93CDB7DEB72B970FB6F894CA
:10455000DEBF0FBECDBF789484B5826084BD84B5C4
:10456000816084BD85B5826085BD85B5816085BD6E
:1045700080916E00816080936E0010928100809126
:1045800081008260809381008091810081608093AE
:104590008100809180008160809380008091B100D3
:1045A00084608093B1008091B00081608093B000FE
:1045B00080917A00846080937A0080917A00826092
:1045C00080937A0080917A00816080937A00809154
:1045D0007A00806880937A001092C100F89410925B
:1045E00073051092CC0721E02093CD0782E08093E1
:1045F000CE0783E08093CF078FEF8093D00780931F
:10460000D1078093D2078093D3071092D4071092DA
:10461000C3071092C4071092C5071092C6071092E4
:10462000BA0780E480930D052093B70720930E0509
:1046300090E89093B60730E13093940738E03093D8
:10464000930738E23093920710928E0510927C0502
:104650001092850530ED3093840590938305809307
:1046600005051092A6071092A70780E09CE390939F
:10467000BC078093BB079093BE078093BD079093C0
:10468000C0078093BF079093C2078093C1079093A0
:104690006505809364059093670580936605909304
:1046A00069058093680590936B0580936A059093E4
:1046B0005D0580935C0590935F0580935E05909304
:1046C00061058093600590936305809362058FE098
:1046D00099E3909338058093370590933A0580933A
:1046E000390590933C0580933B0590933E0580935C
:1046F0003D05909349058093480590934B05809321
:104700004A0590934D0580934C0590934F058093F7
:104710004E0582E290E09093400580933F05909390
:1047200042058093410590934405809343059093FF
:1047300046058093450590935105809350059093CD
:10474000530580935205909355058093540590939B
:1047500057058093560580E38093360520934705DF
:1047600081E090E0A0E08093EF049093F004A093A8
:10477000F10480E090E890930805809307052FE00E
:1047800035E03A872987F12C6F2D70E090E080E0CA
:104790000E941D3B20E030E040EF51E40E947C3A53
:1047A0000E941E3C20E030E04FE753E40E94AB3B08
:1047B0000E94EE3AE985FA856193FA87E987F394D6
:1047C000FFE1FF12E1CF82E08093880580918905A7
:1047D00090918A05019624E0959587952A95E1F7B1
:1047E00090938705809386058FE78093EE048CE78E
:1047F0008093AB078FE896E39093AA078093A9076D
:104800001092A80710929B0710927D051092E50464
:104810009091E604292F30E03093E8042093E704D8
:104820002038310514F49093EE0481E09C3708F0B1
:1048300080E0890F91E08D3708F490E0891B809328
:10484000E6048091EE04E82FEE0FF0E0EE0FFF1F7C
:104850008E0F9F2F911D8157994CFC01259134910A
:104860003093ED042093EC04FC013296E491E09344
:10487000EB04FC013396859194919093EA04809324
:10488000E904E2E0AE2EA092B507BB24B394B09247
:10489000B407B0929A0780E090E8909399078093CC
:1048A0009807B092AF07A092B207B092B107B0924A
:1048B00097079093960780939507B092AE078FEF76
:1048C00080938D0585EB80938C0584EB80938B051D
:1048D0008FEF90E09093D9048093D80480E4809384
:1048E00082058093A007FFE7FF2EF092580880E82A
:1048F0008093570880E00E94DB1E89E190E090934E
:10490000C5008093C40088E18093C10085E00E94C7
:10491000881E86E00E94881E8BE00E94881E83E02D
:104920000E94881E8DE00E94881EF7BC83EF84BD24
:10493000F092B3008093B000A0928000B5BCB0921A
:10494000B10089E0809381001092D7041092D604C0
:10495000EE24EA94FE2C212CBCE63B2E412C1CE0DC
:10496000512E612C0CEA702EC12C8CE4D82E809133
:10497000C00087FF14C08091C60087FF02C00C945E
:10498000E42E90915B0891110AC0A0905A08A98664
:10499000AA2009F454C02A2D215020935A08A0912E
:1049A0007305AF5FA09373058A2F8F708330A9F4CE
:1049B00080917105909172052091B507213011F415
:1049C0000C94572F10F40C94142F223011F40C94E3
:1049D000972F8091720580937005B090700590912B
:1049E0007C05A0FF02C00C94F82FEA2FF0E0F595AB
:1049F000E795EF71FF27E150FB4D0C94733CCB2FF3
:104A0000E2313132613295320A33F82F1A3366338C
:104A1000A933F83328345C340A339234B134413545
:104A20008435F835273666360A339C36DA36F3365F
:104A300036378537B537EA370A3322383838909118
:104A4000590820915808392F3069321332C3209108
:104A5000570827FF03C080935708A1CF309156080D
:104A6000811162C1332309F4B9C0E22FF0E0EA52A8
:104A7000F84F8081882309F4B1C031503093560833
:104A8000815080839091D5079111A8C04091D4079F
:104A9000442309F47FC031111DC08FEF8093D007EC
:104AA0008093D1078093D2078093D3071092CC07CD
:104AB00031E03093CD0782E08093CE0783E080938E
:104AC000CF071092C8071092C9071092CA07109218
:104AD000CB0777C03091D1079091D2078091D3074F
:104AE0005091D007251347C03093D0079093D1073A
:104AF0008093D2078FEF8093D3073F3F09F46EC0B6
:104B00008091C70781112DC01092C3071092C5076D
:104B10001092BB073093BC0751E05093C807109226
:104B2000BF073093C0075093CA07403409F056C0FE
:104B30008091BA07882321F0F092B907E092B80774
:104B40008091B707823010F01092B6071092B50727
:104B50008091B4078093B3071092B2078091B10798
:104B60003BC090E001969595879582548093C3074A
:104B70008093C507CDCF231305C09093D1078093B1
:104B8000D20704C02917D9F3281328C08FEF8093C8
:104B9000D30724C09091D007291330C081110FC0D2
:104BA0008FEF8093D0078091CD07811119C080913C
:104BB000CC078093CD071092CC071092C807311113
:104BC0000DC082E08093B5079091AF079093B30733
:104BD0008093B2078091AE078093B00780E83BCF07
:104BE0009091CE07911103C08093CE07E0CF209122
:104BF000CF072111E2CF9093CF07F6CF9091D10745
:104C000029132EC08111DBCF8FEF8093D1078091C4
:104C1000CD07813049F49091CC079093CD078093D4
:104C2000CC071092C907CBCF9091CE07913049F4B1
:104C30008093CE078091CC078093CD079093CC07CB
:104C4000F0CF2091CF07213061F79093CF07809369
:104C5000CE078091CC078093CD072093CC07E1CF7E
:104C60009091D20729132EC08111A9CF8FEF809385
:104C7000D2078091CD07823049F49091CC07909370
:104C8000CD078093CC071092CA0799CF9091CE0799
:104C9000923049F48093CE078091CC078093CD0762
:104CA0009093CC07F0CF2091CF07223061F79093FB
:104CB000CF078093CE078091CC078093CD072093B8
:104CC000CC07E1CF9091D307291379CF811177CF0A
:104CD0008FEF8093D3078091CD07833049F4909173
:104CE000CC079093CD078093CC071092CB0767CF6A
:104CF0009091CE07933049F48093CE078091CC07F2
:104D00008093CD079093CC07F0CF2091CF0723302D
:104D100061F79093CF078093CE078091CC07809363
:104D2000CD072093CC07E1CF3F3F09F457CF9091B7
:104D3000D407B091D007A1E0A30F622F70E09923B0
:104D400009F48BC0FB01EA52F84F80818F5FA0937A
:104D500056088083903619F09F3709F052C0BF3F44
:104D600021F52093D0079F3791F41092C30710923A
:104D7000C5071092BB072093BC0761E06093C8078A
:104D80001092BF072093C0076093CA07D1CE8091CD
:104D9000C707882351F390E0019695958795825433
:104DA0008093C3078093C507E4CF8091D207809397
:104DB000D3078091D1078093D207B093D107209376
:104DC000D0078091C707811112C01092C3071092BB
:104DD000C5071092BB072093BC0771E07093C8070A
:104DE0001092BF072093C0077093CA07F7CE90E0D8
:104DF00001969595879582548093C3078093C50744
:104E0000E8CF8091D2078093D3078091D107809318
:104E1000D207B093D1072093D0078091C7078111A3
:104E200012C01092C3071092C5071092BB072093BF
:104E3000BC0781E08093C8071092BF072093C0078A
:104E40008093CA0775CE90E0019695958795825418
:104E50008093C3078093C507E8CF8091C70750911F
:104E6000B4074091B1072B1324C0A0935608FB014F
:104E7000EA52F84F90819F5F9083811112C0109287
:104E8000C3071092BB072093BC0791E09093C8071B
:104E90001092B5075093B3071092B2074093B00732
:104EA0009DCE90E001969595879582548093C30797
:104EB000E8CFE091D107E9872E131CC0A0935608D4
:104EC000FB01EA52F84F90819F5F908381110AC0E5
:104ED0001092C4071092BD072093BE07F1E0F09333
:104EE000C907D6CF90E00196959587958254809317
:104EF000C407F0CFF091D2072F131DC0A09356081E
:104F0000FB01EA52F84F90819F5F908381110BC0A3
:104F10001092C5071092BF072093C007AA24A3943C
:104F2000A092CA07B5CF90E00196959587958254D7
:104F30008093C507EFCFE091D3072E131DC0A09338
:104F40005608FB01EA52F84F90819F5F90838111D0
:104F50000BC01092C6071092C1072093C207BB2452
:104F6000B394B092CB0794CF90E001969595879536
:104F700082548093C607EFCFBF3F69F099859F3F6A
:104F800049F092E0FF3F39F09091CC07EF3F19F4E0
:104F900093E001C091E0E091CF07E91741F0F09173
:104FA000CE079F1336C0E093CE079093CF07A09310
:104FB0005608FB01EA52F84F60816F5F6083E92F6A
:104FC000F0E0E053F84F2083923009F448C093306A
:104FD00009F45AC0913079F1811125C01092C307AC
:104FE0001092BB072093BC07E1E0E093C8073111A2
:104FF0004FCF8091BA07882321F0F092B907E09251
:10500000B8078091B707823008F442CF1092B607F4
:105010003FCFB091CD079B1303C0F093CD07C3CF13
:10502000B093CC07FACF90E001969595879582547E
:105030008093C307D5CF81110AC01092C407109284
:10504000BD072093BE07F1E0F093C907D0CF90E0F1
:1050500001969595879582548093C407F0CF81116E
:105060000BC01092C5071092BF072093C007AA2457
:10507000A394A092CA07BBCF90E00196959587951F
:1050800082548093C507EFCF81110BC01092C607E1
:105090001092C1072093C207BB24B394B092CB07F0
:1050A000A6CF90E001969595879582548093C60788
:1050B000EFCF392F3068231330C19091570897FDF7
:1050C000CACC20915608222309F488CDE92FF0E0BC
:1050D000EA52F84F8081882309F480CD2150209333
:1050E0005608815080833091D507311177CD3091AA
:1050F000D407332309F455C021110FC08FEF8093DB
:10510000D0078093D1078093D2078093D307109262
:10511000CC0721E02093CD07CECC2091D107409140
:10512000D2078091D3075091D00795132FC02093B9
:10513000D0074093D1078093D2078FEF8093D30796
:105140002F3F09F44BCD8091C707811115C01092F4
:10515000C3071092C5071092BB072093BC0741E01C
:105160004093C8071092BF072093C0074093CA0717
:10517000303409F033CDDCCC90E0019695958795DD
:1051800082548093C3078093C507E5CF921303C071
:105190004093D107F4CC941709F4F1CC98131ECDA9
:1051A000F5CC3091D007931322C081110FC08FEF3F
:1051B0008093D0078091CD0781110BC08091CC07DF
:1051C0008093CD071092CC071092C807211106CD0D
:1051D000F8CC9091CE07911103C08093CE07EECF0B
:1051E0003091CF073111F0CF9093CF07F6CF3091A8
:1051F000D10793132EC08111E9CF8FEF8093D10790
:105200008091CD07813049F49091CC079093CD07E0
:105210008093CC071092C907D9CF9091CE079130D7
:1052200049F48093CE078091CC078093CD0790936B
:10523000CC07F0CF3091CF07313061F79093CF0793
:105240008093CE078091CC078093CD073093CC0715
:10525000E1CF3091D20793132EC08111B7CF8FEFDA
:105260008093D2078091CD07823049F49091CC078A
:105270009093CD078093CC071092CA07A7CF909147
:10528000CE07923049F48093CE078091CC0780936B
:10529000CD079093CC07F0CF3091CF07323061F734
:1052A0009093CF078093CE078091CC078093CD0752
:1052B0003093CC07E1CF3091D307931387CF81117F
:1052C00085CF8FEF8093D3078091CD07833049F44A
:1052D0009091CC079093CD078093CC071092CB0789
:1052E00075CF9091CE07933049F48093CE0780918B
:1052F000CC078093CD079093CC07F0CF3091CF07A8
:10530000333061F79093CF078093CE078091CC071D
:105310008093CD073093CC07E1CF392F306B231327
:1053200030C59091570897FD96CBEFEFE90FEF3717
:1053300008F054CCF0E0E156F64D0C94733C1E2A74
:10534000EE25EE25EE25EE25EE25EE25EE253C2D6F
:10535000EE25EE25EE25EE25822D9C2D252A2E2AE2
:10536000412A8B2B8D2C992C562C802B4F2A7F2C4D
:10537000812A962BA12BEE25EE25EE25EE25EE2596
:10538000EE25592CEE25EE25EE25EE25EE25EE2513
:10539000EE25EE25EE25EE25EE25EE25EE25EE2575
:1053A000EE25EE25EE25EE25EE25622AAC2BB72B59
:1053B000C22BCD2BD82BE32BF02BFB2B042BEE2574
:1053C000EE25EE25EE25EE25EE25EE25EE25EE2545
:1053D000EE25EE25EE25EE25EE25EE258E2A9C2ADD
:1053E000A32AF62AEE25A52DFE2D102EEE25EE255C
:1053F000EE25EE25EE25EE25EE25EE25EE25EE2515
:10540000EE25EE25EE25EE25752A7B2AA02CF62C1E
:10541000EE25EE25EE25EE254A2CC42DAC2EAC2E25
:10542000AC2EAC2EAC2EAC2EAC2EAC2E322E362E9C
:10543000EE25322E322E322E322E322E90E0019672
:10544000959587958093AD07C9CB8D3708F08CE78C
:10545000843008F484E08093AB07C0CBE82FF0E001
:105460003496B4E0F595E795BA95E1F7EE0FFF1F96
:10547000EC53FB4F808191819093AA078093A907F9
:10548000ADCB8D3740F08CE78054990B880F991F76
:105490008093A807A3CB8430B8F784E0F5CF80339E
:1054A00018F41092A6079ACB803520F482E08093FE
:1054B000A60794CB803710F484E0F9CF51E05093E5
:1054C000A6078CCB803318F41092A70787CB8035C2
:1054D00020F482E08093A70781CB803710F485E029
:1054E000F9CF61E06093A70779CB8F5F8E7F8195BD
:1054F0008093A50773CB8F538E7F81958093A407EC
:105500006DCB90E001969595879540EC489F900172
:10551000499F300D11243093A30760CBE82FF0E0B2
:105520003196EE7FF170EE5BFB4F8081918190931D
:10553000A2078093A10752CB90E00196959587959D
:105540008093AC074BCB8093A00790919F0790323C
:1055500010F5893140F480EA80939D0780939E077F
:1055600010929C073BCB803338F48153990B880F02
:10557000991F880F991FF0CF803538F48E53990BFF
:105580009595879595958795E7CF873608F092C2D0
:105590008F54990BECCF10929D079036E0F489312F
:1055A00010F480EADBCF803338F48153990B880FF5
:1055B000991F880F991FD2CF803538F48E53990BDD
:1055C0009595879595958795C9CF873608F090C2B0
:1055D0008F54990BECCF10929E07811101C081E08E
:1055E0008054880F819580939C07F8CA8D3740F0CE
:1055F0008CE78054990B880F991F80939B07EECA04
:105600008430B8F784E0F5CF9091D507911107C0A9
:10561000803408F4E3CA71E07093D507DFCA8034A0
:1056200008F0DCCA1092D507E091D007EF3FA9F04F
:10563000F0E0EA52F84F808181110FC08FEF809324
:10564000D0078091CD07811122C38091CC07809330
:10565000CD071092CC071092C807E091D107EF3F19
:10566000B1F0F0E0EA52F84F8081811110C08FEF65
:105670008093D1078091CD07813009F016C39091B6
:10568000CC079093CD078093CC071092C907E09187
:10569000D207EF3FB1F0F0E0EA52F84F808181117C
:1056A00010C08FEF8093D2078091CD07823009F030
:1056B00019C39091CC079093CD078093CC0710929B
:1056C000CA07E091D307EF3FB1F0F0E0EA52F84F9C
:1056D0008081811110C08FEF8093D3078091CD0717
:1056E000833009F01CC39091CC079093CD07809331
:1056F000CC071092CB078091560881116FCA61CAFE
:105700008F3721F480E48093B40768CA90E0039651
:1057100095958795F8CF8F3721F48FEF80939A076F
:105720005DCA90E0039695958795F8CF90E0019635
:10573000982F882788279E7F9093990780939807B2
:105740004DCA8F3721F480E48093AF0747CA90E0B9
:10575000039695958795F8CF8F3721F480E4809351
:10576000B1073CCA90E0039695958795F8CF8F379F
:1057700021F48FEF8093970731CA90E003969595B7
:105780008795F8CF90E00196982F882788279E7FED
:10579000909396078093950721CA8F3721F480E470
:1057A0008093AE071BCA90E0039695958795F8CF36
:1057B0008E3738F490E001969595879580939407FD
:1057C0000DCA8FE3FBCF823020F481E080939307F2
:1057D00005CA90E002969595879595958795F6CFA1
:1057E0008E3738F490E001969595879580939207CF
:1057F000F5C98FE3FBCF803220F0803638F591E099
:10580000998780919007A9848A1509F4E7C92091A6
:105810009107A0929007E0E9F5E081919191DF0175
:105820001297959587958D939C9340E957E04E1775
:105830005F0799F7222369F010928F0510928E0569
:105840009FEF90938C0580918D052AC0E2E0E98757
:10585000D8CFA984A0928F052A2D223091F058F438
:10586000AA2009F4C8C1213009F0B8C9A984A092BE
:105870008E0595EBE6CF3985333039F0343009F0B9
:10588000ADC9B984B0928E0503C0A984A0928E05DB
:1058900091E8D7CF880F8F5F80938D0590918C050D
:1058A000899FC001112490938B0598C98093C707E5
:1058B00095C98F3711F42FE7298730E8839FC001FE
:1058C00011249052A9848A0D911D90938A0580938A
:1058D0008905019623E0959587952A95E1F74091F2
:1058E0008805489F9001499F300D112435952795D3
:1058F0003595279530938705209386056FC98230AB
:1059000020F082508C3708F08BE790E095958795D2
:10591000959587958093850561C9803120F480ED48
:10592000809384055BC9803710F48054F9CF80E3FD
:10593000F7CF8054990B880F991F809383054EC928
:105940008093820590918105903218F5893140F459
:1059500080EA80937F058093800510927E053EC982
:10596000803338F48153990B880F991F880F991F42
:10597000F0CF803538F48E53990B95958795959592
:105980008795E7CF873618F48F54990BEDCF80E6D3
:10599000E0CF10927F059036E8F4893110F480EA68
:1059A000DACF803338F48153990B880F991F880F11
:1059B000991FD1CF803538F48E53990B95958795E3
:1059C00095958795C8CF873618F48F54990BEDCFEE
:1059D00080E6C1CF10928005811101C081E0805422
:1059E000990B880F991F80937E05F8C880938105D5
:1059F000909182058032C8F4993108F4A9CF903390
:105A000028F4292F2153330BC901AECF903528F448
:105A1000492F4E53550BCA01B0CF973608F0B7CF78
:105A2000692F6F54770BCB019FCF10927F05803683
:105A3000C8F4993108F4B3CF903328F4E92FE15337
:105A4000FF0BCF01B2CF903528F4292F2E53330B03
:105A5000C901B4CF973608F0BBCF492F4F54550B2F
:105A6000CA01A3CF10928005911101C091E0692F66
:105A70006054770BCB01B5CF80939F079091A0071F
:105A80008032D0F4993108F466CD903328F4E92FB0
:105A9000E153FF0BCF016BCD903528F4292F2E5306
:105AA000330BC9016DCD973628F4492F4F54550B50
:105AB000CA015DCD80E650CD10929D078036D0F4AE
:105AC000993108F46ECD903328F4692F6153770B28
:105AD000CB016DCD903528F4E92FEE53FF0BCF01AC
